:020000040800F2
:10000000D80A0020D5020008252100081D2100087B
:1000100021210008ED100008792F000800000000E1
:100020000000000000000000000000005D2F00083C
:10003000F110000800000000F92C0008612F0008F2
:10004000EF020008EF020008EF020008EF020008CC
:10005000EF020008EF020008EF020008EF020008BC
:10006000EF020008EF020008EF020008EF020008AC
:10007000EF020008EF020008EF020008EF0200089C
:10008000EF020008EF020008EF020008EF0200088C
:10009000EF020008EF020008EF020008EF0200087C
:1000A000EF020008EF020008EF020008EF0200086C
:1000B000EF020008EF020008EF020008EF0200085C
:1000C000EF020008EF020008EF020008EF0200084C
:1000D000EF020008EF020008EF020008EF0200083C
:1000E000EF020008EF020008EF020008EF0200082C
:1000F000EF020008EF020008EF020008EF0200081C
:10010000EF020008EF020008EF020008EF0200080B
:10011000EF020008EF020008EF020008EF020008FB
:10012000EF020008EF020008EF020008EF020008EB
:10013000EF020008EF020008EF020008EF020008DB
:10014000EF020008EF020008EF020008EF020008CB
:10015000EF020008EF020008EF020008EF020008BB
:10016000EF020008EF020008EF020008EF020008AB
:10017000EF020008EF020008EF020008EF0200089B
:10018000EF020008EF020008EF020008EF0200088B
:10019000EF02000800000000EF020008EF02000874
:1001A000EF020008EF020008EF020008EF0200086B
:1001B000EF020008EF020008EF020008EF0200085B
:1001C000EF020008EF020008EF020008EF0200084B
:1001D000EF020008EF02000800F002F800F06BF8F0
:1001E00014A696E8000CB244B344DA4501D100F0FD
:1001F00062F8BAE80F000FA696E83000A5EB0405F8
:1002000004EB0607AAEB0704A7F101074FEA15154F
:100210004FEA3414A4F10104AC4201D300F04BF8CE
:1002200013F0010F18BFFB1A43F0010300F001F8AF
:10023000DBE71847583B0000783B0000103A24BF2A
:1002400078C878C1FAD8520724BF30C830C144BF3B
:1002500004680C6070470000704700000023002411
:1002600000250026103A28BF78C1FBD8520728BFC6
:1002700030C148BF0B607047662903F03C83652995
:1002800003F03983672903F03683612903F035834E
:10029000642900F08780002070471FB503F01EFB23
:1002A00000F0B0FD04000020002103F001FBE0603D
:1002B0001FBD10B510BD00F0A5FE1146FFF7EDFF04
:1002C00002F05CFE00F0C3FE03B4FFF7F2FF03BCD4
:1002D00000F004FF0948804709480047FEE7FEE7B1
:1002E000FEE7FEE7FEE7FEE7FEE7FEE7FEE7FEE7E6
:1002F00004480549054A064B70470000652F000871
:10030000D9010008D8040020D80A0020D80600200F
:10031000D80600200FB41CB50C0007AA009007D027
:100320004142A14202D32044401E01E04FF0FF3081
:10033000074B7B4469460190069800F048FD002079
:10034000002C01D0009908701CBC5DF814FB000063
:10035000BF0A000070B5044685690068C10601D572
:10036000302600E02026C00707D070BDD4E9012167
:1003700030469047206A401C20626D1EF6D570BD45
:1003800070B5044685690078C00707D170BDD4E90F
:10039000012120209047206A401C20626D1EF6D566
:1003A00070BD00002DE9F041064600241068752953
:1003B000314616A510D0AFF30080002802DA404283
:1003C00013A507E031688A0701D512A502E04907A5
:1003D00004D511A5012401E0AFF3008000210A2219
:1003E00006F1240709E0B0FBF2FCB0FBF2F302FBDC
:1003F0001C00303078541846491C0028F3D123469D
:100400002A463046BDE8F04100F0F6B80000000092
:100410002D0000002B000000200000002DE9F05FFF
:10042000894604464FF0000ADFF874B1FB44C0F877
:1004300020A02046E1688847002874D0252806D0EF
:10044000D4E901219047206A401C2062F1E7002690
:100450005F462046E16888472028054607DB312DA6
:1004600005D2781910F8200C08B10643F1E7B0075F
:1004700001D526F00406C4F81CA00027C4F818A073
:100480002A2D09D0284603F00BFA38B304EB87086D
:10049000303DC8F8185019E059F8041B204604EB09
:1004A00087029161E1688847012F054618D1E0690C
:1004B000002820DA26F020061DE0D8F8180000EB0E
:1004C000800005EB40003038C8F818002046E1688D
:1004D0008847054603F0E4F90028EED1012F0AD041
:1004E0002E2D08D12046E16888477F1C0546022F43
:1004F00046F02006C4DBA069002803DA404246F03B
:100500000106A061F00701D026F010066C2D0BD07B
:10051000682D09D04C2D39D06A2D35D0742D35D0A9
:100520007A2D33D016E038E0E1682F462046884720
:10053000B842054609D16C2F26D04FF48060E1689F
:10054000064320468847054604E06C2F1AD04FF436
:10055000807006430DB3A5F14100192802D820355B
:1005600046F400664A462946204626604E46FFF776
:1005700083FE80B101280BD0F61D26F0070000F1A4
:10058000080956E74020E4E78020D8E70020D6E7B6
:1005900006F104094DE7284652E7206ABDE8F09FBE
:1005A000CE3400004FF0000200B513469446964644
:1005B000203922BFA0E80C50A0E80C50B1F1200176
:1005C000BFF4F7AF090728BFA0E80C5048BF0CC024
:1005D0005DF804EB890028BF40F8042B08BF704782
:1005E00048BF20F8022B11F0804F18BF00F8012BF4
:1005F00070477047704770472DE9F0470D469946A0
:100600009246044600F124080168880604D5E06992
:1006100021F01001216000E00120A84201DD471B0C
:1006200000E00027A1697A1902EB0900081AA0610D
:100630002078C00602D42046FFF78CFE002608E092
:10064000D4E901211AF806009047206A401C761C64
:1006500020624E45F4DB2078C0060AD52046FFF71D
:1006600079FE06E0D4E9012130209047206A401C41
:100670002062381EA7F10107F4DC07E0D4E901216C
:1006800018F805009047206A401C2062281EA5F13A
:100690000105F3DC2046FFF773FE2078000602D543
:1006A0000220BDE8F0870120FBE72DE9FF4F0C4653
:1006B0001E464FF0FF378BB0D2E90001DDF86080B5
:1006C0000A908A46C1F30A5505B93D4600210846FD
:1006D0004FF00000BAF1000F00F4400005DA00EB23
:1006E00080004FF4400101EA50004FEA9059B9F1FF
:1006F000010F00DDB9460A9850EA4A000ED044F6D0
:100700001050A5F2FF3545432F14B8F1000F1ED04D
:100710007542291E1EDDC9F100021CE0B8F1010F6F
:100720004FF0000001D0302103E0F24305E02154F6
:10073000401CB042FBDB30460022002121540B99C3
:10074000C1F80880C1E900200FB0BDE8F08FBD1BE3
:100750006D1CDEE74A4600DA694206A800F0DCFBC1
:1007600006AB93E8070003AB83E8070050460A99FD
:1007700002F0B6FC8DE80700A0F500501F3800908D
:100780000398002D0ADD42F21F014A460844002367
:1007900003A90390684602F01FFF09E0A0F500508E
:1007A0004A461F38002303A90390684602F029FF38
:1007B0008DE807000004000C03D04FF0FF30410823
:1007C00000E01046B8F1000F03D000220092154659
:1007D0001EE0751E05D400F019FB303262556D1E07
:1007E000F9D5B3460122084302D000227F1C04E061
:1007F0002078302801D100227F1E002A099784D05A
:100800001DE0112D07DA00F001FB303262556D1C3E
:1008100050EA0102F5D1084302D00098C8B10EE0B9
:100820000021681E05E0235C625C63542254401E74
:10083000491C8142F7DBAB46A81B401E09900020F3
:1008400004F80B000B98099AC0F80880C0E9002B47
:100850007AE711264FF0000857E72DE9F04F884658
:100860000446D21D22F0070191B0D1E90001CDE983
:100870000A0102F0FDFF02460B98C00F01D02D20A7
:1008800007E02068810701D52B2002E0202101EA42
:10089000C000032A099001D0072A05DB0346414620
:1008A000204600F0F9FA0BE12078800601D5E069D6
:1008B00000E00620B8F1650F814606D0B8F1660F5A
:1008C00018D0B8F1670F70D131E00020B9F1110FE5
:1008D000009001DB112301E009F101030AAA01A93B
:1008E0000CA8FFF7E2FEDDE90C70002609F1010516
:1008F000834647E001204B4600904FF000470AAA8C
:1009000001A90CA8FFF7D1FEDDE90DB00C995D46F9
:10091000002610B909F101000D18B9EB050003D448
:10092000C0F1FF3609F10105A5EB09002BE0B9F193
:10093000010F01DA4FF001090020B9F1110F009009
:10094000484601DD112300E003460AAA01A90CA8CC
:10095000FFF7ABFEDDE90C704D460026834620789C
:1009600000070AD4AB4500DA5D4601A8012D04DD7D
:10097000411911F8011C302907D04F4502DA17F14F
:10098000040F04DA012082460FE06D1EEEE7002F0F
:1009900002DCED1B3E4403E0781CA84200DD7D1C18
:1009A000B81B00F1010A4FF000472078000703D47C
:1009B000AA4501DB4FF0FF3A0021B7F1004F0DF1DE
:1009C00043088DF8431024D002202B23002F01DA96
:1009D0007F422D230A21021EA0F1010000DC5FB13D
:1009E00097FBF1FC97FBF1F201FB1C7C17460CF125
:1009F000300C08F801CDEEE7A8F101000370218862
:100A0000090501D5452100E06521A0F1010800F8A4
:100A1000011C09980FA9A1EB0807FF1D00B10120D7
:100A2000411901EBEA70A1693844081A401EA0611F
:100A30002078C00602D42046FFF78CFC099828B124
:100A4000D4E901219047206A401C20622078C0062A
:100A500022D52046FFF77EFC1EE0002E04DBB345C6
:100A600002DD01A8805D00E03020D4E9012190473B
:100A7000206A401C2062761CAAF101005FEA000A8D
:100A80000AD100F0BFF9C0680168405CD4E90121D7
:100A90009047206A401C2062281EA5F10105DCDC7D
:100AA00007E0D4E9012118F8010B9047206A401CA7
:100AB0002062381EA7F10107F3DC2046FFF760FC37
:100AC000032011B041E600002DE9F04F04460D4629
:100AD000D21D22F0070089B0D0E900974846394678
:100AE00002F0C6FE0246F80F01D02D2307E0206871
:100AF000810701D52B2302E0202101EAC0038DF8F4
:100B000020300BB1012000E00020032A824601D0F2
:100B1000072A04DB2946204600F0BEF93FE1207891
:100B2000800601D40D2500E0E569C7F30A560D2DB6
:100B300049DA00214FEA175B08464FF00000002F0A
:100B400000F4400007DA00EB80004FF4400100EBB6
:100B5000D07001EA60008115012901DD4FF0FF31FD
:100B600000224FEA850CBCF1180F06D31346ACF1F6
:100B700018004FF08052C24003E04FF4801323FA74
:100B80000CF30CF10C0CBCF1200F04D3ACF1200CD5
:100B900009FA0CF001E007FA0CF000294FF00048C8
:100BA00001DD18B90FE00ED140450CD319EB020955
:100BB0005F4121B9404502D19F4329EA0209BBEBBD
:100BC000175F00D0761C2088000502D57B4878444A
:100BD00002E07A487844193808AA302302F80A302B
:100BE000037C0AF10101002E0AF1020A53546A46FD
:100BF00002DC4FF0300101E04FF031014FF001080D
:100C00008DF8001002D0A6F2FF3603E059EA470142
:100C100000D06B4E002D02DC2178090704D54FF07F
:100C200002082E218DF80110C44600210BE0C7F305
:100C300003433F01C35C491C6D1E02F808300529BF
:100C400008F1010801DA002DF1DC00210CE000EBD5
:100C50001973491C1B786D1E082902F808304FEAE9
:100C6000091908F1010801DA002DF0DC21688B0672
:100C700002D516E0A8F10108E04505DD02EB080306
:100C800013F8013C302BF5D0B8F1000F09DD02EB71
:100C9000080313F8013C2E2B03D1090701D4A8F156
:100CA0000108002D05DD3E2102F808106D1E08F137
:100CB0000108407C002E02F8080008F1010804DA5F
:100CC0002D20764202F8080002E02B2002F80800EE
:100CD0000A214FF47A70864208F101080BDB96FB7B
:100CE000F0F3303302F8083096FBF0F308F1010816
:100CF00000FB136601E0642E0CDB642096FBF0F32E
:100D0000303302F8083096FBF0F308F1010800FBDD
:100D1000136601E00A2E06DB96FBF1F0303002F894
:100D2000080008F1010896FBF1F001FB106030307B
:100D300002F80800A16908F1010808EB050202EBBE
:100D40000A00081AA0612078C00602D42046FFF7E6
:100D500001FB216A08AE01EB0A00206204E0D4E93D
:100D6000012116F8010B9047BAF1010AF7D2207859
:100D7000C00602D52046FFF7EDFA6E4609E016F8E8
:100D8000010B3E280FD0D4E901219047206A401C76
:100D90002062B8F10108F2D22046FFF7F1FA09B05B
:100DA0000320BDE8F08F206A2844206203E0D4E9E4
:100DB0000121302090476D1EEBD3F8E7502D000045
:100DC00002FCFFFF01694A1C02610878704700B508
:100DD0008FB0CDE901310021059105497944CDE974
:100DE000031011466846FFF719FB0FB000BD000065
:100DF000E5FFFFFFD1E900239A4202D2531C0B60AA
:100E000010707047004870473000002030B5B0F1D6
:100E10000A0271F100034FEA900E4EEA817EB0EBB8
:100E20000E0061EB91014FEA101E4EEA017E10EBBD
:100E30000E0041EB11114FEA102E4EEA016E10EB3D
:100E40000E0041EB11214FEA104E4EEA014E10EB1D
:100E50000E0041EB1141401841F100014FEAD00072
:100E600040EA41704FEAD1014FEA810444EA9074AC
:100E700010EB800544EB01046D1944EB0404521B94
:100E8000A3414FF0000348BF0A3200D530BD401CDB
:100E900041F1000130BD00002DE9F0411F4604463C
:100EA00003260168072A01F4006004DB08B116A5D7
:100EB00005E016A503E008B115A500E015A521F091
:100EC00010002060A069C01EA0610FB1401EA0618B
:100ED0002046FFF73FFA4FB1D4E901213846904749
:100EE000206A401C2062C01C206206E0206AFAE7EB
:100EF000D4E9012115F8010B9047761EF8D220465F
:100F0000FFF73EFABDE8F0814E414E006E616E0083
:100F1000494E4600696E66002DE9F0478146164647
:100F20008AB0354878440DC88DE80D0032487844C1
:100F3000801C03AC0DC884E80D0041F69B300844CA
:100F4000372190FBF1F290FBF1F5A5F1800501FB53
:100F500012041B3C02D56442012000E00020DFF8AF
:100F600098A080460027FA44AAF1BE0A0EE0E007E6
:100F70000AD03246684607EB470101230AEB81019C
:100F800002F03FFB8DE8070064107F1C002CEED1BF
:100F9000194F7F44AE3F19E0E80715D007EB041066
:100FA0000DF1180A90E80E008AE80E00C068F042C1
:100FB00001D1981908903246012306A903A802F02E
:100FC00020FB03AB83E807006D10641C002DE3D108
:100FD0004FF0010332466946B8F1000F03A802D072
:100FE00002F0FAFA01E002F00CFBC9E90001C9F8CD
:100FF00008200AB0BDE8F0878C2A0000004870473E
:10100000100000207546FFF7F9FFAE46050069465F
:10101000534620F00700854618B020B5FFF768F961
:10102000BDE820404FF000064FF000074FF00008E9
:101030004FF0000BAC46ACE8C009ACE8C009ACE826
:10104000C009ACE8C00921F007018D46704710B512
:101050000446AFF300802046BDE81040FFF734B9E6
:1010600030B44FF0013C50F8042B51F8043BCCFA5B
:1010700052F4D51A20D1FCB950F8042B51F8043B96
:10108000CCFA52F4D51A17D1B4B950F8042B51F850
:10109000043BCCFA52F4D51A0ED16CB950F8042B9B
:1010A00051F8043BCCFA52F4D51A05D1002CDAD011
:1010B00030BC4FF00000704729BAB1FA81F111F04D
:1010C0001801D1F120008440F2D1CA40CB4012F087
:1010D000FF0213F0FF0330BCD01A704701491820FB
:1010E000ABBEFEE72600020070470000FEE70000EE
:1010F00070470000B0B5044600F006F9054640F21E
:101100000000C2F200004068611C18BF044400BF28
:1011100000F0FAF8401BA042FAD3B0BD2DE9F04F21
:1011200085B00E680390002E00F0E480039841F231
:10113000004500F12002009200F13842C4F600059B
:101140004FEAB2270623A84208BF0523052F4FF018
:1011500000054FF000074FF0000838BF4FEAB223F8
:10116000019302910BE000BF0E6808F1010836FA06
:1011700008F207F1020705F1040500F0BB80012029
:1011800000FA08F216EA0209EED0D1F804A0032012
:101190000AF0030CACF10106012E00FA07FB13D88C
:1011A00003988668D1E9024326EA0B06BB40334325
:1011B0008360436823EA0202CAF3001303FA08F3C8
:1011C0001A43426006E000BF8C68BCF1030F08BF01
:1011D000012C27D0039904FA07F3CA684FEA480E96
:1011E00022EA0B026FEA0B001A43BCF1020FCA603D
:1011F0001ED16FF00301009E01EA580205F01C04A5
:101200000F2156F802C001FA04FA02992CEA0A0CDE
:101210000B69A34043EA0C03B350D1F804A00AF0D1
:10122000030C05E04FF0030C0CFA07F2D043BE4666
:1012300003990CFA0EF30A681AF4403F02EA00021E
:1012400042EA03020A6002998ED041F26003C4F2BE
:1012500002031A6840F2004E42F001021A601A6856
:10126000C4F2010E02F001020492049A28F0030273
:101270004FF6084C7244CFF6FF7C05F00C060F20A9
:1012800052F80C3000FA06F40198A34300FA06F66F
:10129000334342F80C30DEF808204B6842EA090676
:1012A00040F20C4CDC0258BF22EA0906CEF8086076
:1012B000C4F2010CDCF800209C0242EA090658BF87
:1012C00022EA0906CCF80060DEF804209C0342EA1A
:1012D000090658BF22EA0906CEF80460DEF80020AD
:1012E000DB0342EA090658BF22EA0906CEF800608D
:1012F0003AE700BF05B0BDE8F08F00001823002AD0
:1013000008BF2823C150704740F2D440C2F2000009
:101310000068704740F2000040F2D441C2F2000081
:10132000C2F2000140680A6810440860704700007B
:1013300080B5032000F07AF80F2000F009F80028AB
:101340001CBF012080BD00F02BF8002080BD0000F4
:10135000B0B540F20005C2F200056968F1B104467B
:1013600040F20800C2F200004FF47A720068B2FB4B
:10137000F1F1B0FBF1F000F0BBFE01460F2C4FF095
:1013800001000AD8002918BFB0BD4FF0FF30214638
:10139000002200F01FF800202C60B0BD0120B0BD7D
:1013A00082B041F25800C4F20200816841F00101AC
:1013B0008160816801F0010101910199016841F0AA
:1013C00080510160006800F080500090009802B0E9
:1013D00000F0C4B810B54EF60C5CCEF2000CDCF890
:1013E0000030C3F3022E8EF00704042C28BF04241F
:1013F000BEF103034FF0FF3E0EFA04F438BF0023A2
:10140000A14399400EFA03F39A43114300F00F02EF
:1014100000F160430901043A03F564436244002883
:1014200048BF02F10C03197010BD00004EF60C51BC
:10143000CEF200010A684FF6FF031A4060F30A2259
:1014400042F0806040F0FD700860704747F2140180
:10145000C4F2000151F8142CB0F5007F3CD00028F4
:1014600074D1C86E02F4C06220F48070B2F5806F4F
:10147000C8662FD151F8140C012262F34A2041F8BA
:10148000140C40F20800C2F20000006832225043FF
:101490004DF68362C4F21B32A0FB0202900C00BF27
:1014A0000A68520511D5421C0FD00A6852050CD5A6
:1014B00058B10A68520508D5012806D00A685205B5
:1014C00003D50228A0F10400EAD10868400544BF12
:1014D0000320704700207047C86E02F4C06240F4D9
:1014E0008070B2F5806FC866F4D151F8140C0122F7
:1014F00062F34A2041F8140C40F20800C2F20000E6
:101500000068322250434DF68362C4F21B32A0FBC6
:101510000202900C0A68520511D5421C0FD00A68CD
:1015200052050CD558B10A68520508D5012806D0D5
:101530000A68520503D50228A0F10400EAD1086820
:10154000400544BF03207047C4E700BF022060F39A
:101550004A2241F8142C00207047000047F208008E
:10156000C4F20000016841F480410160704700004E
:101570002DE9F047002863D042F2000AC4F2020AC3
:101580000446DAF800000D4600F00F0081420CD945
:10159000DAF8000020F00F002843CAF80000DAF85B
:1015A000000000F00F00A8424AD1216841F208086B
:1015B000C807C4F2020803D1880740F1D080B5E023
:1015C000606858F8082C022838D003283CD19201D2
:1015D00036D5D8F80420D8F8043042F20046C3F3D8
:1015E000031302F00302D8F804700133C0F2F406CA
:1015F000032A04BF41F20026C0F27A06B6FBF3F2DA
:10160000D8F80430C7F306277A43C3F341630227AF
:1016100007EB4303B2FBF3F24BF20043C0F2C443C7
:101620009A4259D9D8F8002012F0F00F49D0890712
:1016300052D5A16800294FD143E000BF910305D4E2
:101640000120BDE8F08700BF5105F9D5D8F800109A
:1016500001F00C0104293FD0D8F8001001F00C0172
:10166000082939D0D8F8001001F00C010C2933D129
:10167000D8F80410D8F8042042F20047C2F303124D
:1016800001F00301D8F804300132C0F2F407032955
:1016900004BF41F20027C0F27A07B7FBF2F1D8F895
:1016A0000420C3F306235943C2F34162022303EB30
:1016B0004202B1FBF2F14BF20042C0F2C44291424D
:1016C0000AD9D8F80010082262F307114FF0010977
:1016D000C8F8001002E000BF4FF00009D8F8001071
:1016E00021F003010843C8F80000FFF70DFE06468D
:1016F00041F28837D8F80000616800F00C00B0EBC8
:10170000810F07D0FFF700FE801BB842F2D90320FB
:10171000BDE8F0872168880708D4B9F1000F1ED012
:10172000D8F8000020F0F00017E000BF480705D50A
:10173000D8F8000040F4E060C8F80000080706D5BB
:10174000D8F80000072262F30D20C8F80000D8F88E
:101750000000A26820F0F0001043C8F80000DAF89A
:10176000000000F00F0085421BD2DAF8000020F0E4
:101770000F002843CAF80000FFF7C6FD064641F2F5
:10178000883700BFDAF8000000F00F00A84207D049
:10179000FFF7BAFD801BB842F4D90320BDE8F087FB
:1017A0002168480707D5D8F80000E26820F4E06017
:1017B0001043C8F80000080708D5D8F800002169D0
:1017C00020F4605040EAC100C8F80000D8F80000DA
:1017D00042F20041C0F2F40100F00C000428084677
:1017E0002DD0D8F8000000F00C00082841F20020AD
:1017F000C0F27A0023D0D8F8002002F00C020C2AA4
:101800001CD1D8F80420D8F8043002F00302C3F346
:101810000313D8F804700133032A08BF0146B1FB53
:10182000F3F0D8F80410C7F30627C1F34161022290
:10183000784302EB4101B0FBF1F000E00020D8F862
:10184000001043F6CC12C1F30311C0F60002515C44
:1018500040F2080201F01F0120FA01F140F20000FD
:10186000C2F200000068C2F200021160BDE8F04759
:10187000FFF76EBD002804BF012070472DE9F0413D
:1018800082B00446007841F20006C007C4F20206A6
:101890001ED1207880073DD42078000764D42078BA
:1018A000400700F187802078800600F1D980E56943
:1018B000002D00F04282B06800F00C000C2840F0CF
:1018C0003181012D40F08E81012002B0BDE8F08110
:1018D000B06800F00C01F068082961D0032281F0A3
:1018E0000C0122EA00000844B0FA80F0400957D108
:1018F00061683068B1F5803F07D0B1F5A02F40F0A6
:10190000E38040F480203060306840F48030306004
:10191000E4E000BFB068F16800F00C00042871D06A
:1019200001F0030180F00C0081F002010844B0FADC
:1019300080F0400966D1E1683068002900F0E0805D
:1019400040F480703060FFF7DFFC054630684005EA
:1019500000F10A81FFF7D8FC401B0228F6D90320CA
:1019600002B0BDE8F08100BF6169D6F8940000299B
:1019700000F0948040F00100C6F89400FFF7C4FC2A
:10198000054600BFD6F8940080073FF588AFFFF703
:10199000BBFC401B0228F5D9032002B0BDE8F08152
:1019A000306880037FF575AF606800287FF471AF01
:1019B0003EE000BFB06D5FEAC00808D4B06D40F0F3
:1019C0008050B065B06D00F080500190019847F2F2
:1019D0000007C4F200073868C0052DD4386840F409
:1019E00080703860FFF790FC054600BF3868C0057E
:1019F00022D4FFF789FC401B0228F7D9032002B04C
:101A0000BDE8F0813068400501D5E06880B17068BC
:101A1000216920F0FE4040EA0160706040F2000061
:101A2000C2F200000068FFF793FC00283FF434AFD7
:101A3000012002B0BDE8F081A168D6F8900001292C
:101A400008D0052940F0AE8040F00400C6F89000B0
:101A5000D6F8900040F00100C6F89000AEE000BF5C
:101A6000A169D6F89800002900F0868040F00100B6
:101A7000C6F89800FFF748FC054600BFD6F8980066
:101A800080073FF514AFFFF73FFC401B02284FF0E3
:101A90000300F3D902B0BDE8F08100BF20F00100DF
:101AA000C6F89400FFF730FC054600BFD6F8940056
:101AB00080077FF5F4AEFFF727FC401B0228F5D91D
:101AC000032002B0BDE8F08120F48030306030683F
:101AD000002920F48020306000F0BE80FFF714FC65
:101AE000054600BF306880033FF5D3AEFFF70CFC1E
:101AF000401B6428F6D9032002B0BDE8F08100BF86
:101B000020F480703060FFF7FFFB05463068400529
:101B10007FF5C2AEFFF7F8FB401B02284FF0030031
:101B2000F4D9B7E7306820F080703060FFF7ECFB45
:101B3000022D05460CD100BF3068800140F1B8800D
:101B4000FFF7E2FB401B02284FF00300F4D9A1E7A6
:101B50003068800140F1EA80FFF7D6FB401B022885
:101B60004FF00300F4D995E77068216920F0FE403A
:101B700040EA016070608FE620F00100C6F898002E
:101B8000FFF7C2FB054600BFD6F8980080077FF537
:101B90008EAEFFF7B9FB401B02284FF00300F3D9CC
:101BA00078E700BF20F00100C6F89000D6F890005A
:101BB000002920F00400C6F890005DD0FFF7A4FBD8
:101BC000054641F2883700BFD6F89000800765D4FB
:101BD000FFF79AFB401BB842F6D9032002B0BDE8DC
:101BE000F08100BFF068216A00F003028A427FF4AE
:101BF0001FAF626A6FF00F0300F0F00103EB0212F7
:101C000091427FF415AFA16A00F4FE42B2EB012FBE
:101C10007FF40EAFE16A00F07842B2EBC16F7FF45F
:101C200007AF226B0023CFF6E07303EA025200F401
:101C3000C001A2F5001291427FF4FAAE616B4FF041
:101C40007E4202EA016100F0C06001F17E418842FB
:101C50007FF4EEAE71E000BFFFF756FB054600BF14
:101C6000306880037FF515AEFFF74EFB401B6428FC
:101C70004FF00300F4D90DE7FFF746FB054641F2AC
:101C8000883700BFD6F89000800707D5FFF73CFBE8
:101C9000401BB8424FF00300F4D9FBE6B8F1000F47
:101CA0003FF501AEB06D20F08050B065FBE500BFA0
:101CB000F06848F20C01C0F29F1104F1200700EA1D
:101CC000010C8ECF6FF00F00D4E90C5400EB021022
:101CD0000022CFF6E07241EA0C0102EA0552084305
:101CE000A2F500124FF07E4540EA032005EA0465A4
:101CF000104305F17E4540EAC7602843F060306834
:101D000040F080703060F06840F08070F060FFF765
:101D1000FBFA0446306880010FD4FFF7F5FA001B88
:101D200002284FF00300F5D9B4E600BFF0684FF683
:101D3000FC71CFF6EE610840F060002002B0BDE813
:101D4000F0810000002804BF01207047416A19B1EA
:101D500000210161142104E04168B1F5827F02D0C5
:101D60001C2100224250B0B50025856290F85D101C
:101D700029B980F85C50044600F056F8204602214C
:101D800080F85D100168D0F80CE00B68BEF5E06FDC
:101D900023F040030B6098BF01254EF40063B3F5B8
:101DA000706F4FEA053C1CBF00258562D0E90154E5
:101DB000D0E9043205F4827504F404442C4403F0A1
:101DC00002032344846902F00102C5691A4404F441
:101DD00000731A4405F03803056A1A4405F08003BD
:101DE000856A1A4405F400531A430A600422436AC0
:101DF0000EF4706502EA1442446B45EA0C0503F0E8
:101E000010032A4304F008041A4322434A60CA69B3
:101E100022F40062CA6100210122016680F85D207F
:101E2000BDE8B0400846704780B586B0006843F60C
:101E30000002C4F2000200219042CDE90411CDE974
:101E40000211019102D006B080BD00BF41F24C00EA
:101E5000C4F20200C26842F48042C260C26802F466
:101E600080420092009A026842F00202026000681A
:101E700000F00200009000984FF4604001900220B2
:101E8000CDE902010520059040F200400491C4F61E
:101E9000000001A9FFF742F906B080BD2DE9F0412D
:101EA00082B01D4616460F460446FFF72DFA94F8F9
:101EB0005D1001290ED18046002F4FF0010018BFA0
:101EC000002E03D102B0BDE8F08100BF94F85C00A1
:101ED000012803D1022002B0BDE8F081012084F87E
:101EE0005C000320002184F85D002166A763A687BB
:101EF000E6872164A4F84410A4F84610A068E164C1
:101F0000B0F5004F2068216507D1016821F040013C
:101F10000160016841F4804101600168490603D411
:101F2000016841F0400101606168731EE268B1FA26
:101F300081F1B3FA83F349095B09B2F5E06F41EA35
:101F4000030143D931B137F8021BC160A763E08FA9
:101F50000138E087E08F002876D0681C0BD124E0A0
:101F6000A16B31F8022BC260A163E08F0138E087DA
:101F7000E08F002868D0206881688907F0D4FFF7D7
:101F8000C3F9A0EB0800A842F2D3012084F85D0059
:101F9000002084F85C00032002B0BDE8F08100BF9F
:101FA000FFF7B2F9E08F00284ED0206881688907DA
:101FB000F6D5A16B31F8022BC260A163E08F013826
:101FC000E087E08F0028F0D13EE000BF89B1E18FCB
:101FD00002294FF6FE7103D337F8022BC26004E0EA
:101FE0003A7801310273A06B471CA763E08F084465
:101FF000E087E08F40B3681C5FD04FF6FE70461C50
:1020000008E000BFFFF780F9A0EB0800A842BCD2AF
:10201000E08FC8B1216888688007F3D5E28FA06B94
:10202000022A05D330F8022BCA604FF6FE7104E095
:1020300000780873A06B31460130A063E08F08443C
:10204000E087E08F0028E5D120464FF4C0512A46B2
:10205000434600F053FE68B920462946424600F048
:1020600011FF38B920464FF4C0612A46434600F0BC
:1020700045FE28B1206E40F020002066202020661A
:10208000A06838B9002001902068C168019180687B
:1020900001900198012084F85D00002084F85C0024
:1020A000206E002818BF012002B0BDE8F08100BFFB
:1020B000FFF72AF9E08F0028C6D0206881688907D9
:1020C000F6D5E28FA16B012A08D931F8022BC26044
:1020D000A163E08F0238E087ECE700BF0978017365
:1020E000A06B0130A063E08F0138E087E2E70000D9
:1020F000411E0020B0EB116F1CBF012070474EF253
:102100001002CEF2000251604EF62351CEF20001D1
:10211000F0230B700721906011607047FEE700000C
:10212000FEE70000FEE7000080B540F2D400C2F2F6
:1021300000004FF48061FEF735FA80BD2DE9F04FC5
:1021400081B00A9F002F57D03F2900F23781002B22
:1021500000F0348147B2002F00F13081002A00F0F6
:102160002D8140F2D40E03EB0109024400F1020A72
:102170006FF0700CC2F2000E4FF001080CEA011370
:102180000EEB030B01F0070308FA03F4574600BFF8
:102190000BEB070515F8023C43EA04007B1E1E0604
:1021A00005F8020C20D49A421ED915F8010C3B0602
:1021B00040EA040005F8010C16D4BA4214D91BF801
:1021C00007007B1C20431E060BF807000CD49A4224
:1021D0000AD96878BB1C20431E06687004D49A4252
:1021E00007F10407D4D800BF3E2900F2E78001318F
:1021F0008945C3D8E2E000BF0244013A5FFA82FE9B
:10220000AEEB000BBBF1010F4FF001090093B8BF1B
:102210004FF0FF39BBF1000F48BFCBF1000B0FFAB5
:102220008BF85F4606460C464FF0010C09E000BFF4
:102230007A0012B2002AC8BF4E444245BCBF5F4478
:10224000013C320615D4E2B23F2A12D840F2D40340
:10225000C4F3C20AC2F2000306F07F0503EBCA13FF
:1022600002F0070213F805A00CFA02F242EA0A0291
:102270005A5532B27245DBD122B28A42D8D1009A85
:102280005F460A44013AD4B20646009409E000BF12
:102290007A0012B2002AC8BF4E444245BCBF5F4418
:1022A000013C320616D4E2B23F2A13D802F0070AE4
:1022B00040F2D402C4F3C203C2F2000206F07F056A
:1022C00002EBC31313F805C0012202FA0AF242EA34
:1022D0000C025A5532B27245DAD1009B22B29A42B0
:1022E000D6D1009A4FF00109521A13B2012A82EA9C
:1022F000E332A2EBE33CCCF100020FFA82FB5F4633
:1023000006460B46B8BF4FF6FF7909E07A0012B2D5
:102310005A45C4BFA7EB0C07013E002A48BF4B44F7
:10232000320617D4DAB23F2A14D8824602F00700E8
:1023300040F2D402C3F3C205C2F2000206F07F04E9
:1023400002EBC51515F8048001228240504642EA8E
:1023500008022A5532B28242D8D1009C1AB2A24257
:10236000D4D100984FF001085E4677460AE000BFDE
:10237000720012B25A45C4BFA6EB0C06013F002AF8
:1023800048BF49443A0613D4CAB23F2A10D840F293
:10239000D405C1F3C204C2F2000507F07F0305EBC8
:1023A000C41402F00702E55C08FA02F22A43E25480
:1023B0003AB27245DCD10AB28242D9D101B0BDE84D
:1023C000F08F0000F0B581B040F60044C4F6000480
:1023D0002046012100220026FEF790FF6420FEF730
:1023E00089FE204601210122FEF788FF6420FEF7C6
:1023F00081FEAE208DF80300204602210022022734
:10240000FEF77CFF204604210022FEF777FF40F212
:102410007005C2F200050DF10301284601224FF4B8
:102420007A73FFF73BFD204604210122FEF766FF89
:10243000204602210122FEF761FFD5208DF803001E
:10244000204602210022FEF759FF204604210022E7
:10245000FEF754FF0DF10301284601224FF47A7371
:10246000FFF71CFD204604210122FEF747FF20460E
:1024700002210122FEF742FF80208DF80300204652
:1024800002210022FEF73AFF204604210022FEF737
:1024900035FF0DF10301284601224FF47A73FFF74F
:1024A000FDFC204604210122FEF728FF20460221E0
:1024B0000122FEF723FFA8208DF803002046022109
:1024C0000022FEF71BFF204604210022FEF716FF24
:1024D0000DF10301284601224FF47A73FFF7DEFC69
:1024E000204604210122FEF709FF20460221012295
:1024F000FEF704FF3F208DF8030020460221002252
:10250000FEF7FCFE204604210022FEF7F7FE0DF147
:102510000301284601224FF47A73FFF7BFFC2046DF
:1025200004210122FEF7EAFE204602210122FEF7E5
:10253000E5FED3208DF80300204602210022FEF79D
:10254000DDFE204604210022FEF7D8FE0DF1030136
:10255000284601224FF47A73FFF7A0FC204604219D
:102560000122FEF7CBFE204602210122FEF7C6FE25
:102570002046022100228DF80360FEF7BFFE2046B0
:1025800004210022FEF7BAFE0DF1030128460122C4
:102590004FF47A73FFF782FC204604210122FEF7F4
:1025A000ADFE204602210122FEF7A8FE402620466D
:1025B000022100228DF80360FEF7A0FE20460421D0
:1025C0000022FEF79BFE0DF10301284601224FF485
:1025D0007A73FFF763FC204604210122FEF78EFE8A
:1025E000204602210122FEF789FE8D208DF803008E
:1025F000204602210022FEF781FE2046042100220F
:10260000FEF77CFE0DF10301284601224FF47A7398
:10261000FFF744FC204604210122FEF76FFE20460E
:1026200002210122FEF76AFE14208DF803002046E5
:1026300002210022FEF762FE204604210022FEF75E
:102640005DFE0DF10301284601224FF47A73FFF776
:1026500025FC204604210122FEF750FE20460221DF
:102660000122FEF74BFE20208DF8030020460221B8
:102670000022FEF743FE204604210022FEF73EFE24
:102680000DF10301284601224FF47A73FFF706FC8F
:10269000204604210122FEF731FE204602210122BC
:1026A000FEF72CFE2046022100228DF80370FEF773
:1026B00025FE204604210022FEF720FE0DF1030135
:1026C000284601224FF47A73FFF7E8FB20460421E5
:1026D0000122FEF713FE204602210122FEF70EFE24
:1026E000A1208DF80300204602210022FEF706FEFD
:1026F000204604210022FEF701FE0DF103012846C9
:1027000001224FF47A73FFF7C9FB2046042101220E
:10271000FEF7F4FD204602210122FEF7EFFDC8205E
:102720008DF80300204602210022FEF7E7FD204637
:1027300004210022FEF7E2FD0DF1030128460122EB
:102740004FF47A73FFF7AAFB204604210122FEF71B
:10275000D5FD204602210122FEF7D0FDDA208DF8BA
:102760000300204602210022FEF7C8FD2046042176
:102770000022FEF7C3FD0DF10301284601224FF4AC
:102780007A73FFF78BFB204604210122FEF7B6FD8A
:10279000204602210122FEF7B1FD12208DF8030030
:1027A000204602210022FEF7A9FD20460421002236
:1027B000FEF7A4FD0DF10301284601224FF47A73C0
:1027C000FFF76CFB204604210122FEF797FD20460F
:1027D00002210122FEF792FD81208DF803002046A0
:1027E00002210022FEF78AFD204604210022FEF786
:1027F00085FD0DF10301284601224FF47A73FFF79E
:102800004DFB204604210122FEF778FD20460221DF
:102810000122FEF773FDCF208DF803002046022130
:102820000022FEF76BFD204604210022FEF766FD24
:102830000DF10301284601224FF47A73FFF72EFBB6
:10284000204604210122FEF759FD204602210122E3
:10285000FEF754FDD9208DF8030020460221002206
:10286000FEF74CFD204604210022FEF747FD0DF146
:102870000301284601224FF47A73FFF70FFB20462D
:1028800004210122FEF73AFD204602210122FEF733
:1028900035FDF1208DF80300204602210022FEF7CD
:1028A0002DFD204604210022FEF728FD0DF1030135
:1028B000284601224FF47A73FFF7F0FA20460421EC
:1028C0000122FEF71BFD204602210122FEF716FD24
:1028D000DB208DF80300204602210022FEF70EFDCA
:1028E000204604210022FEF709FD0DF103012846D0
:1028F00001224FF47A73FFF7D1FA20460421012216
:10290000FEF7FCFC204602210122FEF7F7FC2046E0
:10291000022100228DF80360FEF7F0FC204604211E
:102920000022FEF7EBFC0DF10301284601224FF4D3
:102930007A73FFF7B3FA204604210122FEF7DEFC8A
:10294000204602210122FEF7D9FCA4208DF80300C5
:10295000204602210022FEF7D1FC2046042100225D
:10296000FEF7CCFC0DF10301284601224FF47A73E7
:10297000FFF794FA204604210122FEF7BFFC20460F
:1029800002210122FEF7BAFCA6208DF803002046A2
:1029900002210022FEF7B2FC204604210022FEF7AD
:1029A000ADFC0DF10301284601224FF47A73FFF7C5
:1029B00075FA204604210122FEF7A0FC20460221E0
:1029C0000122FEF79BFCAF208DF803002046022178
:1029D0000022FEF793FC204604210022FEF78EFC25
:1029E0000DF10301284601224FF47A73FFF756FADE
:1029F000204604210122FEF781FC2046022101220B
:102A0000FEF77CFC40F2D400C2F200004FF480617B
:102A1000FDF7C8FD00F002F801B0F0BD2DE9F04F60
:102A200081B040F6004440F2D40540F27006C4F68E
:102A30000004C2F20005C2F200060DF101080DF11A
:102A400002094FF0100B0DF103074FF0000A00BF11
:102A50004AF0B0008DF80100204602210022FEF766
:102A60004DFC204604210022FEF748FC304641463A
:102A700001224FF47A73FFF711FA20460421012254
:102A8000FEF73CFC204602210122FEF737FC002025
:102A90008DF80200204602210022FEF72FFC20467E
:102AA00004210022FEF72AFC3046494601224FF459
:102AB0007A73FFF7F3F9204604210122FEF71EFC8A
:102AC000204602210122FEF719FC204602210022A5
:102AD0008DF803B0FEF712FC204604210022FEF719
:102AE0000DFC3046394601224FF47A73FFF7D6F9D0
:102AF000204604210122FEF701FC2046022101228A
:102B0000FEF7FCFB204602210122FEF7F7FB2046E0
:102B100004210022FEF7F2FB3046294680224FF4C2
:102B20007A73FFF7BBF9204604210122FEF7E6FB8A
:102B30000AF1010ABAF1080F05F1800588D101B048
:102B4000BDE8F08F2DE9F04FA2F15B03DBB2203A34
:102B5000C52B38BF002243F6DC13D2B2C0F6000307
:102B600040F2D4094FF0000E03EB021C4FF00108B5
:102B7000C2F2000907E000BF0EF1010EBEF1080F1E
:102B800008BFBDE8F08F00EB0E0253B2002BF3D468
:102B90000CEB0E031CF80EA093F808B0D6B2002779
:102BA00003E000BF0237082FE6D0CB19DCB23F2C80
:102BB00010D803F007022AFA07F504F0F80408FA1F
:102BC00002F2ED0709EB0414A55D0CBF25EA020231
:102BD0002A43A25503F10802D4B23F2C0AD901338B
:102BE000DCB23F2C1BD903F10802D4B23F2CD9D858
:102BF0002BE000BF03F007022BFA07F504F0F804FE
:102C000008FA02F2ED0709EB0414A55D0CBF25EAF2
:102C100002022A43A2550133DCB23F2CE3D803F071
:102C200007022AFA07F504F0F80408FA02F2AD07E1
:102C300009EB0414A55D54BF25EA02022A43A255FC
:102C400003F10802D4B23F2CACD803F007022BFAF0
:102C500007F39B0704F0F80308FA02F209EB0313E9
:102C60009C5D54BF24EA020222439A559AE7000071
:102C700070B584B001AE13460C4605460EA2304630
:102C80000C21FDF747FB9DF804209AB1013E00BFDF
:102C9000E8B2E1B2D2B20023FFF754FF0835E8B240
:102CA000782888BF1034B27888BF0025002A06F142
:102CB0000106EDD104B070BD256C64001378002BC3
:102CC00008BF704770B50C460546561EE8B2E1B223
:102CD000DAB20023FFF736FF0835E8B2782888BF5C
:102CE0001034B37888BF0025002B06F10106EDD122
:102CF000BDE8704070470000704700002DE9F047C4
:102D000082B000271E4690460D4681468DF803701E
:102D1000FEF7FAFA301A00EB0806FEF7F5FA40F271
:102D20000801C2F20001096823225143090DD9F8B4
:102D3000004071430191A168294239D0824618F1BF
:102D4000010039D0B5F5C06F22D108E001980138F3
:102D50000190D9F80000806810F4C06F27D0207B64
:102D60008DF803009DF80300FEF7CEFAA0EB0A00F1
:102D7000B04259D201980028E8D10026E9E700BF07
:102D8000019801380190D9F80000806828420ED0DF
:102D9000FEF7BAFAA0EB0A00B04245D2019800282B
:102DA000EED10026D9F8000080682842F0D1002733
:102DB000384602B0BDE8F0870027B5F5C06F25D1D1
:102DC000207B8DF803009DF80300A06810F4C06F0D
:102DD000EDD0207B8DF803009DF80300A06810F46F
:102DE000C06FE4D0207B8DF803009DF80300A0683D
:102DF00010F4C06FDBD0207B8DF803009DF803003A
:102E0000A06810F4C06FDBD1D2E700BFA0682842F1
:102E1000CDD0A0682842CAD0A0682842C7D0A068F8
:102E20002842F3D1C4E700BFD9E900014268B1F5F7
:102E3000827F22F0E00242600BD1D9F80810B1F590
:102E4000004F02D0B1F5806F03D1016821F040013D
:102E50000160D9F82810B1F5005F07D1016821F4AD
:102E600000510160016841F400510160012089F8BE
:102E70005D00002089F85C000327384602B0BDE8F9
:102E8000F0870000F0B581B015460E460446FEF707
:102E90003BFA281A8719FEF737FA40F20801C2F206
:102EA00000010968C1F3CB317943009121688A6838
:102EB000120626D50546701C07D118E00098013887
:102EC00000902068806800061BD5FEF71DFA401BA5
:102ED000B84219D200980028F0D1002720688068F5
:102EE0000006F2D40DE000BF8868000609D58868A6
:102EF000000606D58868000644BF88685FEA00605F
:102F0000F2D4002001B0F0BDD4E900014268B1F56F
:102F1000827F22F0E00242600AD1A168B1F5004F41
:102F200002D0B1F5806F03D1016821F0400101604A
:102F3000A16AB1F5005F07D1016821F40051016079
:102F4000016841F400510160012084F85D00002017
:102F500084F85C00032001B0F0BD00007047000061
:102F6000FEF7D8B94EF68850CEF20000016841F461
:102F70007001016070470000FEE7000094B0FEF7AA
:102F8000D7F906AC201D3421FDF70CFB4FF400707F
:102F9000FEF75CFA022006904FF480700990402002
:102FA0000A90002520460D95FEF764FC20B1EFF352
:102FB000108072B6FEE700BF0F200190012601A825
:102FC0000021CDE90265CDE90455FEF7D1FA28B11B
:102FD000EFF3108072B600BFFEE700BF002541F29C
:102FE0004C000A95CDE90855CDE90655C4F202001A
:102FF000016840F6004441F0020101600168C4F636
:10300000000401F00201019101990168002241F0E0
:10301000080101600068072100F008000190019894
:1030200020460727FEF76AF90320099006A92046E3
:10303000CDE906760896FEF771F840F2700043F687
:103040000001C2F20000C4F200014FF482724FF49A
:10305000E0634FF40076202480E826000821C0E9D0
:103060000335C0E90556C461C0E90855C0E90A57EF
:10307000C0E90C51FEF766FE20B1EFF3108072B686
:10308000FEE700BFFFF79EF9FFF74EF80EA2002003
:1030900000211023FFF712FE0EA2002010211023A2
:1030A000FFF70CFE0020202140F2EA721023FFF708
:1030B000DFFD00200021802240230095FFF73EF82D
:1030C000FFF7ACFCFEE700BF4F4C4544205445538E
:1030D00054000000535049322052454144590000E9
:1030E0005FEA400C08BF91F0000F4FEA8C234FEAD3
:1030F000C12243EA51514FEA1C5018BF00F5F0407D
:103100004FEA300018BF41F000415FEA6C5C00F00C
:103110002980BCF1FF3F08BF40F080407047130C8E
:1031200006BF12044FF0100C4FF0000C130E04BF3A
:1031300012020CF1080C130F04BF12010CF1040C65
:10314000930F04BF92000CF1020CD30F04BF520086
:103150000CF1010C11464FF00002A0F11F00A0EB92
:103160000C00704711F0004F08BF704731F000416C
:103170003FF4D5AF0B0C06BF09044FF0100C4FF015
:10318000000C0B0E04BF09020CF1080C0B0F04BF5E
:1031900009010CF1040C8B0F04BF89000CF1020C27
:1031A000CB0F04BF49000CF1010CCCF1200322FA33
:1031B00003F341EA030102FA0CF2A0EB0C0000F168
:1031C0000100704723F07F4720F07F4C80EA030026
:1031D00000F00040ACEB070303F57C5303F1FF0361
:1031E0002DE9804909B44FEA144324EA03484FEA21
:1031F000154B25EA0B4E0FF2042606EB13273E78FB
:1032000003FB0667C7F5000707FB06F64FEAD6463D
:1032100006F102064FEA543707FB066CCCF1005C5E
:103220004FEA1C472CEA074C0CFB06F507FB06F49B
:1032300004EB15464FEA961649085FEA320234BF9E
:1032400000204FF000404FEAD13706FB07FC4FEA61
:103250001C4C0CFB0BF7D21B03FB0CF761EB0701BB
:103260000CFB0EF7B0EB074072EB17420CFB08F7B4
:1032700034BFA2EB0742B2EB074261EB17414FEAC2
:103280000C444FEA910706FB07FC4FEA1C4C0CFB71
:103290000BF7B0EBC74072EB573203FB0CF734BFB0
:1032A000A2EBC742B2EBC74261EB57310CFB0EF702
:1032B000B0EBC70072EB57720CFB08F734BFA2EB00
:1032C000C702B2EBC70261EB57714FEA816141EA75
:1032D00092114FEA826242EA90124FEA806004EB58
:1032E000CC04039F4FEAD13706FB07FC4FEA1C4C86
:1032F0000CFB0BF7D21B03FB0CF761EB07010CFB7C
:103300000EF7B0EB074072EB17420CFB08F734BF27
:10331000A2EB0742B2EB074261EB17414FEA8C5533
:1033200004EB9C244FEA910706FB07FC4FEA1C4C78
:103330000CFB0BF7B0EBC74072EB573203FB0CF7FB
:1033400034BFA2EBC742B2EBC74261EB57310CFB73
:103350000EF7B0EBC70072EB57720CFB08F734BFE7
:10336000A2EBC702B2EBC70261EB57714FEA816172
:1033700041EA92114FEA826242EA90124FEA80607B
:1033800015EB4C2544F100044FEAD13706FB07FC4E
:103390004FEA1C4C0CFB0BF7D21B03FB0CF761EB49
:1033A00007010CFB0EF7B0EB074072EB17420CFB6A
:1033B00008F734BFA2EB0742B2EB074261EB1741BB
:1033C0004FEA813141EA92414FEA823242EA904229
:1033D0004FEA80304FEA0C7615EB1C1544F10004DF
:1033E00048EA03434EEA0B484FF0000EB2EB080CDC
:1033F00071EB030724BF624639464EEB0E0E4FF0C9
:10340000000B0018524149414BEB0B0BB2EB080C7F
:1034100071EB03077BF1000B24BF624639464EEB8C
:103420000E0E4FF0000B0018524149414BEB0B0BB5
:10343000B2EB080C71EB03077BF1000B24BF624673
:1034400039464EEB0E0E51EA020718BF46F0010650
:1034500016EB0E7655F1000254F1000103D5BDE8DC
:103460008901BDE80088BDE88901BDE80048B619BA
:10347000524141EB0101A3F10103704780807F7E3F
:103480007D7C7B7A797877767675747372717170DA
:103490006F6E6E6D6C6C6B6A6A696868676666658C
:1034A0006464636362616160605F5F5E5E5D5D5C1A
:1034B0005C5B5B5A5A59595858575756565555558B
:1034C0005454535352525251515050504F4F4F4EEB
:1034D0004E4D4D4D4C4C4C4B4B4B4A4A4A49494939
:1034E000484848474747474646464545454444447B
:1034F0004443434343424242424141419C46002BA4
:1035000030D477002BD04FEA37071CB503B44FF007
:1035100010004FF01001BAF1000F06D0BCF1000FFF
:10352000DCBF40F0080040F008014FF000000FBC85
:10353000BDE810400BF1010BBBF1010F08BF5FEAC2
:10354000170722BF12F1010211F101014FF00041F2
:1035500043F1000300F0004043EA00007047F9D354
:103560005708D0E746EA06464FEA164613F1400FE1
:103570001FDD13F1200FDFBF16430A460021203361
:103580005B42BED0C3F1200746EA06464FEA164624
:1035900002FA07F746EA070622FA03F2C3F1200708
:1035A00001FA07F742EA070221FA03F14FF000039C
:1035B000A7E746EA020646EA06464FEA164646EA04
:1035C0000106BCBF46EA0646360C4FF000034FF03A
:1035D00000024FF0000194E72DE9804C70B49A4648
:1035E000934691E8380007C831EA400C48BF34EAF6
:1035F000430C03D5FFF7E6FDFFF780FFF0BCBDE805
:10360000008C2DE9804C70B49A46934691E83800BE
:1036100007C810F0804F08BF13F0804F03D100F0AF
:1036200005F8FFF76BFFF0BCBDE8008C20F07F478A
:1036300023F07F4C80EA030000F0004007EB0C030E
:10364000A3F57C53A3F1FE0392F0000F00F0B380CA
:1036500095F0000F00F077802DE901494FEA114005
:1036600021EA00484FEA144624EA064700FB06FC1C
:1036700008FB06F607FB08F818EB06484CEB164C5F
:1036800000FB07F718EB07484CEB17404FEA124BCB
:1036900022EA0B4E4FEA154625EA06470BFB06FCCD
:1036A0000EFB06F607FB0EFE1EEB064E4CEB164C11
:1036B0000BFB07F71EEB074E4CEB174B18EB0B08F9
:1036C00040F1000018EB0E0B58EB000840F1000031
:1036D0008F1A4FF000014FF000063CBFC943661B34
:1036E00014BFB5EB040C00213CBFC943F61B4FEAE5
:1036F000174427EA04454FEA1C472CEA074C04FB11
:10370000076205FB07F70CFB05F616EB074642EBD5
:10371000174204FB0CFC16EB0C4642EB1C421BEB65
:10372000060658EB020241414EEA8E0E46EA9E061C
:1037300001D5BDE80189B619524141EB0101A3F160
:103740000103BDE801894FEA144524EA05464FEA22
:10375000114721EA074C05FB07F406FB07F70CFBB2
:1037600006F111EB074144EB174405FB0CFC11EB90
:103770000C4144EB1C444FEA124722EA074C05FB7C
:1037800007F206FB07F70CFB06F616EB074642EBC3
:10379000174205FB0CFC16EB0C4642EB1C456A1865
:1037A00054F1000148BF7047B619524141EB010185
:1037B000A3F10103704795F0000F37D04FEA114293
:1037C00021EA02464FEA144724EA074C02FB07F1BC
:1037D00006FB07F70CFB06F414EB074441EB17411B
:1037E00002FB0CFC14EB0C4441EB1C414FEA154767
:1037F00025EA074C02FB07F506FB07F70CFB06F66C
:1038000016EB074645EB174502FB0CFC16EB0C4686
:1038100045EB1C42121951F1000148BF7047B6191F
:10382000524141EB0101A3F1010370474FEA1445F6
:1038300024EA05464FEA114721EA074C05FB07F148
:1038400006FB07F70CFB06F212EB074241EB1741B0
:1038500005FB0CFC12EB0C4251EB1C414FF0000637
:1038600048BF7047921841EB0101A3F10103704773
:1038700003B401984100009850EAC12018BF042009
:103880004A0D18BF40F0010040F2FF72B2EB515FE9
:1038900008BF40F00200012808BF052002B07047B1
:1038A00030380A2801D201207047002070470000FC
:1038B00010B500290AD00878002807D005487844B8
:1038C000FDF7CEFB002801D0002010BD024878444F
:1038D00010BD0000EE040000E6040000F1EE100A46
:1038E0004FF6FF71C0F2C03120EA010040F0407095
:1038F000E1EE100A7047FCF7B0BFFDF7E5B8040031
:10390000000800000000000000020001000010306C
:1039100031323334353637383961626364656678FD
:103920007000303132333435363738394142434410
:10393000454658500000000002400000000000A072
:103940000000000005400000000000C8000000006A
:103950000C4000000000409C0000000019400000E6
:103960000020BCBE0000000034400000BFC91B8E18
:1039700000000004B5400000504BCFD06607E2CFF6
:10398000010000006C4100003E8251AADFEEA73426
:1039900001000000D9420000DCB5A0E23A301F97D8
:1039A000FFFFFFFFB4450000FD25A0C8E9A3C14FFC
:1039B000FFFFFFFFFF3F000000000080000000004D
:1039C000FF3F000000000080000000000000000039
:1039D00000000000010203040607080900000000BF
:1039E000000000000000000000000000000000F8DF
:1039F00000000000000000333000000000100C0642
:103A0000100C0600000000000000000040C07840DC
:103A1000C0784000043F04043F040400007088FCA8
:103A200008300000001820FF211E0000F008F00000
:103A3000E018000000211C031E211E0000F0088871
:103A4000700000001E2123241927211010160E00DB
:103A5000000000000000000000000000000000E086
:103A6000180402000000000718204000000204189B
:103A7000E00000000040201807000000404080F0F7
:103A8000804040000202010F01020200000000F02D
:103A9000000000000101011F010101000000000001
:103AA0000000000080B07000000000000000000076
:103AB00000000000000101010101010100000000FF
:103AC0000000000000303000000000000000000096
:103AD00080601804601806010000000000E0100873
:103AE0000810E000000F102020100F00001010F848
:103AF000000000000020203F202000000070080887
:103B00000888700000302824222130000030088806
:103B1000884830000018202020110E000000C0202E
:103B200010F8000000070424243F240000F808884F
:103B3000880808000019212020110E0000E01088DC
:103B400088180000000F112020110E00003808080E
:103B5000C83808000000003F00000000007088081E
:103B600008887000001C222121221C0000E010089F
:103B70000810E0000000312222110F00000000C0F8
:103B8000C000000000000030300000000000008095
:103B90000000000000008060000000000000804085
:103BA000201008000001020408102000404040409E
:103BB00040404000040404040404040000081020F1
:103BC0004080000000201008040201000070480836
:103BD0000808F0000000003036010000C030C8289E
:103BE000E810E0000718272423140B000000C03859
:103BF000E0000000203C23020227382008F88888D3
:103C000088700000203F202020110E00C0300808DE
:103C100008083800071820202010080008F80808B5
:103C20000810E000203F202020100F0008F88888AE
:103C3000E8081000203F20202320180008F888887A
:103C4000E8081000203F200003000000C0300808F2
:103C50000838000007182020221E020008F808007B
:103C60000008F808203F210101213F20000808F842
:103C7000080800000020203F202000000000080865
:103C8000F8080800C08080807F00000008F888C025
:103C900028180800203F20012638200008F80800D6
:103CA00000000000203F20202020300008F8F8000D
:103CB000F8F80800203F003F003F200008F830C01F
:103CC0000008F808203F200007183F00E01008080F
:103CD0000810E0000F10202020100F0008F808083E
:103CE0000808F000203F210101010000E010080851
:103CF0000810E0000F18242438504F0008F8888876
:103D000088887000203F2000030C30200070880855
:103D1000080838000038202121221C00180808F863
:103D2000080818000000203F2000000008F80800E4
:103D30000008F808001F202020201F0008788800B5
:103D400000C83808000007380E010000F80800F825
:103D50000008F800033C07000738030008186880D3
:103D60008068180820302C03032C30200838C80045
:103D7000C83808000000203F20000000100808C8D4
:103D8000380800002038262120302800C83D0008CF
:103D900000000020100000003C020008D83D000890
:103DA00010000020C80A00005C0200081C0000008F
:103DB00043000000F8FFFFFF0C0000000E000000B1
:103DC0000F0000002E0000001000000001000000A5
:083DD0000024F40000000000D3
:04000005080001D915
:00000001FF
